{
  "_format": "hh-sol-artifact-1",
  "contractName": "FlashloanDexSwap",
  "sourceName": "contracts/FlashloanDexSwap.sol",
  "abi": [
    {
      "inputs": [
        {
          "internalType": "contract ILendingPoolAddressesProvider",
          "name": "_addressProvider",
          "type": "address"
        }
      ],
      "stateMutability": "nonpayable",
      "type": "constructor"
    },
    {
      "anonymous": false,
      "inputs": [
        {
          "indexed": true,
          "internalType": "address",
          "name": "previousOwner",
          "type": "address"
        },
        {
          "indexed": true,
          "internalType": "address",
          "name": "newOwner",
          "type": "address"
        }
      ],
      "name": "OwnershipTransferred",
      "type": "event"
    },
    {
      "inputs": [
        {
          "internalType": "address[]",
          "name": "assets",
          "type": "address[]"
        },
        {
          "internalType": "uint256[]",
          "name": "amounts",
          "type": "uint256[]"
        },
        {
          "internalType": "uint256[]",
          "name": "premiums",
          "type": "uint256[]"
        },
        {
          "internalType": "address",
          "name": "initiator",
          "type": "address"
        },
        {
          "internalType": "bytes",
          "name": "params",
          "type": "bytes"
        }
      ],
      "name": "executeOperation",
      "outputs": [
        {
          "internalType": "bool",
          "name": "",
          "type": "bool"
        }
      ],
      "stateMutability": "nonpayable",
      "type": "function"
    },
    {
      "inputs": [],
      "name": "isOwner",
      "outputs": [
        {
          "internalType": "bool",
          "name": "",
          "type": "bool"
        }
      ],
      "stateMutability": "view",
      "type": "function"
    },
    {
      "inputs": [],
      "name": "owner",
      "outputs": [
        {
          "internalType": "address",
          "name": "",
          "type": "address"
        }
      ],
      "stateMutability": "view",
      "type": "function"
    },
    {
      "inputs": [],
      "name": "renounceOwnership",
      "outputs": [],
      "stateMutability": "nonpayable",
      "type": "function"
    },
    {
      "inputs": [
        {
          "internalType": "address[]",
          "name": "_assets",
          "type": "address[]"
        },
        {
          "internalType": "uint256",
          "name": "_inputAmount",
          "type": "uint256"
        },
        {
          "internalType": "uint256",
          "name": "_minimumOutputAmount",
          "type": "uint256"
        },
        {
          "internalType": "address",
          "name": "_router",
          "type": "address"
        },
        {
          "internalType": "uint256",
          "name": "_feeAmount",
          "type": "uint256"
        }
      ],
      "name": "trade",
      "outputs": [],
      "stateMutability": "nonpayable",
      "type": "function"
    },
    {
      "inputs": [
        {
          "internalType": "address",
          "name": "newOwner",
          "type": "address"
        }
      ],
      "name": "transferOwnership",
      "outputs": [],
      "stateMutability": "nonpayable",
      "type": "function"
    },
    {
      "inputs": [],
      "name": "withdrawBalance",
      "outputs": [],
      "stateMutability": "nonpayable",
      "type": "function"
    },
    {
      "inputs": [
        {
          "internalType": "address",
          "name": "_token",
          "type": "address"
        }
      ],
      "name": "withdrawToken",
      "outputs": [],
      "stateMutability": "nonpayable",
      "type": "function"
    },
    {
      "stateMutability": "payable",
      "type": "receive"
    }
  ],
  "bytecode": "0x608060405234801561001057600080fd5b5060405162001f9638038062001f968339818101604052602081101561003557600080fd5b810190808051906020019092919050505080806000806101000a81548173ffffffffffffffffffffffffffffffffffffffff021916908373ffffffffffffffffffffffffffffffffffffffff1602179055508073ffffffffffffffffffffffffffffffffffffffff16630261bf8b6040518163ffffffff1660e01b815260040160206040518083038186803b1580156100cd57600080fd5b505afa1580156100e1573d6000803e3d6000fd5b505050506040513d60208110156100f757600080fd5b8101908080519060200190929190505050600160006101000a81548173ffffffffffffffffffffffffffffffffffffffff021916908373ffffffffffffffffffffffffffffffffffffffff1602179055505033600260006101000a81548173ffffffffffffffffffffffffffffffffffffffff021916908373ffffffffffffffffffffffffffffffffffffffff160217905550600260009054906101000a900473ffffffffffffffffffffffffffffffffffffffff1673ffffffffffffffffffffffffffffffffffffffff16600073ffffffffffffffffffffffffffffffffffffffff167f8be0079c531659141344cd1fd0a4f28419497f9722a3daafe3b4186f6b6457e060405160405180910390a380600360006101000a81548173ffffffffffffffffffffffffffffffffffffffff021916908373ffffffffffffffffffffffffffffffffffffffff160217905550600360009054906101000a900473ffffffffffffffffffffffffffffffffffffffff1673ffffffffffffffffffffffffffffffffffffffff16630261bf8b6040518163ffffffff1660e01b815260040160206040518083038186803b1580156102b057600080fd5b505afa1580156102c4573d6000803e3d6000fd5b505050506040513d60208110156102da57600080fd5b8101908080519060200190929190505050600460006101000a81548173ffffffffffffffffffffffffffffffffffffffff021916908373ffffffffffffffffffffffffffffffffffffffff16021790555050611c5a806200033c6000396000f3fe60806040526004361061007f5760003560e01c80638da5cb5b1161004e5780638da5cb5b1461020d5780638f32d59b1461024e578063920f5c841461027b578063f2fde38b1461043657610086565b80635fd8c7101461008b5780636a6668dd146100a2578063715018a6146101a557806389476069146101bc57610086565b3661008657005b600080fd5b34801561009757600080fd5b506100a0610487565b005b3480156100ae57600080fd5b506101a3600480360360a08110156100c557600080fd5b81019080803590602001906401000000008111156100e257600080fd5b8201836020820111156100f457600080fd5b8035906020019184602083028401116401000000008311171561011657600080fd5b919080806020026020016040519081016040528093929190818152602001838360200280828437600081840152601f19601f8201169050808301925050505050505091929192908035906020019092919080359060200190929190803573ffffffffffffffffffffffffffffffffffffffff1690602001909291908035906020019092919050505061054a565b005b3480156101b157600080fd5b506101ba61097a565b005b3480156101c857600080fd5b5061020b600480360360208110156101df57600080fd5b81019080803573ffffffffffffffffffffffffffffffffffffffff169060200190929190505050610ab5565b005b34801561021957600080fd5b50610222610c80565b604051808273ffffffffffffffffffffffffffffffffffffffff16815260200191505060405180910390f35b34801561025a57600080fd5b50610263610caa565b60405180821515815260200191505060405180910390f35b34801561028757600080fd5b5061041e600480360360a081101561029e57600080fd5b81019080803590602001906401000000008111156102bb57600080fd5b8201836020820111156102cd57600080fd5b803590602001918460208302840111640100000000831117156102ef57600080fd5b90919293919293908035906020019064010000000081111561031057600080fd5b82018360208201111561032257600080fd5b8035906020019184602083028401116401000000008311171561034457600080fd5b90919293919293908035906020019064010000000081111561036557600080fd5b82018360208201111561037757600080fd5b8035906020019184602083028401116401000000008311171561039957600080fd5b9091929391929390803573ffffffffffffffffffffffffffffffffffffffff169060200190929190803590602001906401000000008111156103da57600080fd5b8201836020820111156103ec57600080fd5b8035906020019184600183028401116401000000008311171561040e57600080fd5b9091929391929390505050610d02565b60405180821515815260200191505060405180910390f35b34801561044257600080fd5b506104856004803603602081101561045957600080fd5b81019080803573ffffffffffffffffffffffffffffffffffffffff169060200190929190505050611651565b005b61048f610caa565b610501576040517f08c379a00000000000000000000000000000000000000000000000000000000081526004018080602001828103825260208152602001807f4f776e61626c653a2063616c6c6572206973206e6f7420746865206f776e657281525060200191505060405180910390fd5b3373ffffffffffffffffffffffffffffffffffffffff166108fc479081150290604051600060405180830381858888f19350505050158015610547573d6000803e3d6000fd5b50565b610552610caa565b6105c4576040517f08c379a00000000000000000000000000000000000000000000000000000000081526004018080602001828103825260208152602001807f4f776e61626c653a2063616c6c6572206973206e6f7420746865206f776e657281525060200191505060405180910390fd5b82600881905550846001815181106105d857fe5b6020026020010151600660006101000a81548173ffffffffffffffffffffffffffffffffffffffff021916908373ffffffffffffffffffffffffffffffffffffffff1602179055508460028151811061062d57fe5b6020026020010151600760006101000a81548173ffffffffffffffffffffffffffffffffffffffff021916908373ffffffffffffffffffffffffffffffffffffffff16021790555081600560006101000a81548173ffffffffffffffffffffffffffffffffffffffff021916908373ffffffffffffffffffffffffffffffffffffffff1602179055506060600167ffffffffffffffff811180156106d057600080fd5b506040519080825280602002602001820160405280156106ff5781602001602082028036833780820191505090505b5090508560008151811061070f57fe5b60200260200101518160008151811061072457fe5b602002602001019073ffffffffffffffffffffffffffffffffffffffff16908173ffffffffffffffffffffffffffffffffffffffff16815250506060600167ffffffffffffffff8111801561077857600080fd5b506040519080825280602002602001820160405280156107a75781602001602082028036833780820191505090505b50905085816000815181106107b857fe5b60200260200101818152505082876000815181106107d257fe5b602002602001015173ffffffffffffffffffffffffffffffffffffffff166370a08231306040518263ffffffff1660e01b8152600401808273ffffffffffffffffffffffffffffffffffffffff16815260200191505060206040518083038186803b15801561084057600080fd5b505afa158015610854573d6000803e3d6000fd5b505050506040513d602081101561086a57600080fd5b810190808051906020019092919050505010156109675760008260008151811061089057fe5b602002602001015190508073ffffffffffffffffffffffffffffffffffffffff166323b872dd3330876040518463ffffffff1660e01b8152600401808473ffffffffffffffffffffffffffffffffffffffff1681526020018373ffffffffffffffffffffffffffffffffffffffff1681526020018281526020019350505050602060405180830381600087803b15801561092957600080fd5b505af115801561093d573d6000803e3d6000fd5b505050506040513d602081101561095357600080fd5b810190808051906020019092919050505050505b61097182826116d7565b50505050505050565b610982610caa565b6109f4576040517f08c379a00000000000000000000000000000000000000000000000000000000081526004018080602001828103825260208152602001807f4f776e61626c653a2063616c6c6572206973206e6f7420746865206f776e657281525060200191505060405180910390fd5b600073ffffffffffffffffffffffffffffffffffffffff16600260009054906101000a900473ffffffffffffffffffffffffffffffffffffffff1673ffffffffffffffffffffffffffffffffffffffff167f8be0079c531659141344cd1fd0a4f28419497f9722a3daafe3b4186f6b6457e060405160405180910390a36000600260006101000a81548173ffffffffffffffffffffffffffffffffffffffff021916908373ffffffffffffffffffffffffffffffffffffffff160217905550565b610abd610caa565b610b2f576040517f08c379a00000000000000000000000000000000000000000000000000000000081526004018080602001828103825260208152602001807f4f776e61626c653a2063616c6c6572206973206e6f7420746865206f776e657281525060200191505060405180910390fd5b8073ffffffffffffffffffffffffffffffffffffffff1663a9059cbb338373ffffffffffffffffffffffffffffffffffffffff166370a08231306040518263ffffffff1660e01b8152600401808273ffffffffffffffffffffffffffffffffffffffff16815260200191505060206040518083038186803b158015610bb357600080fd5b505afa158015610bc7573d6000803e3d6000fd5b505050506040513d6020811015610bdd57600080fd5b81019080805190602001909291905050506040518363ffffffff1660e01b8152600401808373ffffffffffffffffffffffffffffffffffffffff16815260200182815260200192505050602060405180830381600087803b158015610c4157600080fd5b505af1158015610c55573d6000803e3d6000fd5b505050506040513d6020811015610c6b57600080fd5b81019080805190602001909291905050505050565b6000600260009054906101000a900473ffffffffffffffffffffffffffffffffffffffff16905090565b6000600260009054906101000a900473ffffffffffffffffffffffffffffffffffffffff1673ffffffffffffffffffffffffffffffffffffffff163373ffffffffffffffffffffffffffffffffffffffff1614905090565b6000808a8a6000818110610d1257fe5b9050602002013573ffffffffffffffffffffffffffffffffffffffff1673ffffffffffffffffffffffffffffffffffffffff166370a08231306040518263ffffffff1660e01b8152600401808273ffffffffffffffffffffffffffffffffffffffff16815260200191505060206040518083038186803b158015610d9557600080fd5b505afa158015610da9573d6000803e3d6000fd5b505050506040513d6020811015610dbf57600080fd5b8101908080519060200190929190505050905088886000818110610ddf57fe5b90506020020135811015610e3e576040517f08c379a000000000000000000000000000000000000000000000000000000000815260040180806020018281038252602c815260200180611bf9602c913960400191505060405180910390fd5b8a8a6000818110610e4b57fe5b9050602002013573ffffffffffffffffffffffffffffffffffffffff1673ffffffffffffffffffffffffffffffffffffffff1663095ea7b3600560009054906101000a900473ffffffffffffffffffffffffffffffffffffffff168b8b6000818110610eb357fe5b905060200201356040518363ffffffff1660e01b8152600401808373ffffffffffffffffffffffffffffffffffffffff16815260200182815260200192505050602060405180830381600087803b158015610f0d57600080fd5b505af1158015610f21573d6000803e3d6000fd5b505050506040513d6020811015610f3757600080fd5b8101908080519060200190929190505050610f9d576040517f08c379a0000000000000000000000000000000000000000000000000000000008152600401808060200182810382526035815260200180611b8a6035913960400191505060405180910390fd5b88886000818110610faa57fe5b905060200201358b8b6000818110610fbe57fe5b9050602002013573ffffffffffffffffffffffffffffffffffffffff1673ffffffffffffffffffffffffffffffffffffffff1663dd62ed3e30600560009054906101000a900473ffffffffffffffffffffffffffffffffffffffff166040518363ffffffff1660e01b8152600401808373ffffffffffffffffffffffffffffffffffffffff1681526020018273ffffffffffffffffffffffffffffffffffffffff1681526020019250505060206040518083038186803b15801561108157600080fd5b505afa158015611095573d6000803e3d6000fd5b505050506040513d60208110156110ab57600080fd5b81019080805190602001909291905050501015611113576040517f08c379a000000000000000000000000000000000000000000000000000000000815260040180806020018281038252603a815260200180611bbf603a913960400191505060405180910390fd5b6060600467ffffffffffffffff8111801561112d57600080fd5b5060405190808252806020026020018201604052801561115c5781602001602082028036833780820191505090505b5090508b8b600081811061116c57fe5b9050602002013573ffffffffffffffffffffffffffffffffffffffff168160008151811061119657fe5b602002602001019073ffffffffffffffffffffffffffffffffffffffff16908173ffffffffffffffffffffffffffffffffffffffff1681525050600660009054906101000a900473ffffffffffffffffffffffffffffffffffffffff168160018151811061120057fe5b602002602001019073ffffffffffffffffffffffffffffffffffffffff16908173ffffffffffffffffffffffffffffffffffffffff1681525050600760009054906101000a900473ffffffffffffffffffffffffffffffffffffffff168160028151811061126a57fe5b602002602001019073ffffffffffffffffffffffffffffffffffffffff16908173ffffffffffffffffffffffffffffffffffffffff16815250508b8b60008181106112b157fe5b9050602002013573ffffffffffffffffffffffffffffffffffffffff16816003815181106112db57fe5b602002602001019073ffffffffffffffffffffffffffffffffffffffff16908173ffffffffffffffffffffffffffffffffffffffff1681525050600560009054906101000a900473ffffffffffffffffffffffffffffffffffffffff1673ffffffffffffffffffffffffffffffffffffffff166338ed17398b8b600081811061136057fe5b905060200201356008548430603c42016040518663ffffffff1660e01b815260040180868152602001858152602001806020018473ffffffffffffffffffffffffffffffffffffffff168152602001838152602001828103825285818151815260200191508051906020019060200280838360005b838110156113f05780820151818401526020810190506113d5565b505050509050019650505050505050600060405180830381600087803b15801561141957600080fd5b505af115801561142d573d6000803e3d6000fd5b505050506040513d6000823e3d601f19601f82011682018060405250602081101561145757600080fd5b810190808051604051939291908464010000000082111561147757600080fd5b8382019150602082018581111561148d57600080fd5b82518660208202830111640100000000821117156114aa57600080fd5b8083526020830192505050908051906020019060200280838360005b838110156114e15780820151818401526020810190506114c6565b505050509050016040525050505060005b8c8c905081101561163d5760006115368a8a8481811061150e57fe5b905060200201358d8d8581811061152157fe5b9050602002013561199590919063ffffffff16565b90508d8d8381811061154457fe5b9050602002013573ffffffffffffffffffffffffffffffffffffffff1673ffffffffffffffffffffffffffffffffffffffff1663095ea7b3600160009054906101000a900473ffffffffffffffffffffffffffffffffffffffff16836040518363ffffffff1660e01b8152600401808373ffffffffffffffffffffffffffffffffffffffff16815260200182815260200192505050602060405180830381600087803b1580156115f357600080fd5b505af1158015611607573d6000803e3d6000fd5b505050506040513d602081101561161d57600080fd5b8101908080519060200190929190505050505080806001019150506114f2565b506001925050509998505050505050505050565b611659610caa565b6116cb576040517f08c379a00000000000000000000000000000000000000000000000000000000081526004018080602001828103825260208152602001807f4f776e61626c653a2063616c6c6572206973206e6f7420746865206f776e657281525060200191505060405180910390fd5b6116d481611a1d565b50565b60003090506000309050606060405180602001604052806000815250905060006060865167ffffffffffffffff8111801561171157600080fd5b506040519080825280602002602001820160405280156117405781602001602082028036833780820191505090505b50905060005b875181101561177657600082828151811061175d57fe5b6020026020010181815250508080600101915050611746565b50600160009054906101000a900473ffffffffffffffffffffffffffffffffffffffff1673ffffffffffffffffffffffffffffffffffffffff1663ab9c4b5d868989858989896040518863ffffffff1660e01b8152600401808873ffffffffffffffffffffffffffffffffffffffff1681526020018060200180602001806020018773ffffffffffffffffffffffffffffffffffffffff168152602001806020018661ffff16815260200185810385528b818151815260200191508051906020019060200280838360005b8381101561185c578082015181840152602081019050611841565b5050505090500185810384528a818151815260200191508051906020019060200280838360005b8381101561189e578082015181840152602081019050611883565b50505050905001858103835289818151815260200191508051906020019060200280838360005b838110156118e05780820151818401526020810190506118c5565b50505050905001858103825287818151815260200191508051906020019080838360005b8381101561191f578082015181840152602081019050611904565b50505050905090810190601f16801561194c5780820380516001836020036101000a031916815260200191505b509b505050505050505050505050600060405180830381600087803b15801561197457600080fd5b505af1158015611988573d6000803e3d6000fd5b5050505050505050505050565b600080828401905083811015611a13576040517f08c379a000000000000000000000000000000000000000000000000000000000815260040180806020018281038252601b8152602001807f536166654d6174683a206164646974696f6e206f766572666c6f77000000000081525060200191505060405180910390fd5b8091505092915050565b600073ffffffffffffffffffffffffffffffffffffffff168173ffffffffffffffffffffffffffffffffffffffff161415611aa3576040517f08c379a0000000000000000000000000000000000000000000000000000000008152600401808060200182810382526026815260200180611b646026913960400191505060405180910390fd5b8073ffffffffffffffffffffffffffffffffffffffff16600260009054906101000a900473ffffffffffffffffffffffffffffffffffffffff1673ffffffffffffffffffffffffffffffffffffffff167f8be0079c531659141344cd1fd0a4f28419497f9722a3daafe3b4186f6b6457e060405160405180910390a380600260006101000a81548173ffffffffffffffffffffffffffffffffffffffff021916908373ffffffffffffffffffffffffffffffffffffffff1602179055505056fe4f776e61626c653a206e6577206f776e657220697320746865207a65726f2061646472657373526f75746572206e6f7420617070726f76656420746f207370656e642074686520746f6b656e2031207377617020616d6f756e742e526f7574657220696e73756666696369656e7420616c6c6f77616e636520666f722074686520746f6b656e2031207377617020616d6f756e742e546f6b656e20312062616c616e6365206e6f74203e3d20616d6f756e7420746f20626520737761707065642ea2646970667358221220f4800fc4cb9599c6f96fa1219af73b81534ee2c3994f82ea31c06c393f375cc064736f6c634300060c0033",
  "linkReferences": {},
  "deployedLinkReferences": {}
}